{
  "contractName": "HeritageInsurance",
  "abi": [
    {
      "anonymous": false,
      "inputs": [
        {
          "indexed": false,
          "internalType": "uint256",
          "name": "policyId",
          "type": "uint256"
        },
        {
          "indexed": false,
          "internalType": "address",
          "name": "policyHolder",
          "type": "address"
        },
        {
          "indexed": false,
          "internalType": "string",
          "name": "policyNumber",
          "type": "string"
        },
        {
          "indexed": false,
          "internalType": "uint256",
          "name": "premium",
          "type": "uint256"
        }
      ],
      "name": "PolicyIssued",
      "type": "event"
    },
    {
      "inputs": [
        {
          "internalType": "uint256",
          "name": "",
          "type": "uint256"
        }
      ],
      "name": "policies",
      "outputs": [
        {
          "internalType": "uint256",
          "name": "id",
          "type": "uint256"
        },
        {
          "internalType": "address",
          "name": "policyHolder",
          "type": "address"
        },
        {
          "internalType": "string",
          "name": "policyNumber",
          "type": "string"
        },
        {
          "internalType": "uint256",
          "name": "premium",
          "type": "uint256"
        },
        {
          "internalType": "bool",
          "name": "active",
          "type": "bool"
        }
      ],
      "stateMutability": "view",
      "type": "function",
      "constant": true
    },
    {
      "inputs": [],
      "name": "policyCount",
      "outputs": [
        {
          "internalType": "uint256",
          "name": "",
          "type": "uint256"
        }
      ],
      "stateMutability": "view",
      "type": "function",
      "constant": true
    },
    {
      "inputs": [
        {
          "internalType": "string",
          "name": "_policyNumber",
          "type": "string"
        },
        {
          "internalType": "uint256",
          "name": "_premium",
          "type": "uint256"
        }
      ],
      "name": "issuePolicy",
      "outputs": [],
      "stateMutability": "nonpayable",
      "type": "function"
    }
  ],
  "bytecode": "0x608060405234801561001057600080fd5b50610821806100206000396000f3fe608060405234801561001057600080fd5b50600436106100415760003560e01c80635046e61e14610046578063d3e8948314610062578063de54d42914610096575b600080fd5b610060600480360381019061005b9190610410565b6100b4565b005b61007c60048036038101906100779190610464565b6101ff565b60405161008d95949392919061055a565b60405180910390f35b61009e6102ea565b6040516100ab91906104f3565b60405180910390f35b6000808154809291906100c6906106ed565b91905055506040518060a0016040528060005481526020013373ffffffffffffffffffffffffffffffffffffffff1681526020018381526020018281526020016001151581525060016000805481526020019081526020016000206000820151816000015560208201518160010160006101000a81548173ffffffffffffffffffffffffffffffffffffffff021916908373ffffffffffffffffffffffffffffffffffffffff160217905550604082015181600201908051906020019061018e9291906102f0565b506060820151816003015560808201518160040160006101000a81548160ff0219169083151502179055509050507fd399f4eea88eb4e408725c781d568881bff8b80f00369708f2adcaf90fbc730e6000543384846040516101f3949392919061050e565b60405180910390a15050565b60016020528060005260406000206000915090508060000154908060010160009054906101000a900473ffffffffffffffffffffffffffffffffffffffff169080600201805461024e906106bb565b80601f016020809104026020016040519081016040528092919081815260200182805461027a906106bb565b80156102c75780601f1061029c576101008083540402835291602001916102c7565b820191906000526020600020905b8154815290600101906020018083116102aa57829003601f168201915b5050505050908060030154908060040160009054906101000a900460ff16905085565b60005481565b8280546102fc906106bb565b90600052602060002090601f01602090048101928261031e5760008555610365565b82601f1061033757805160ff1916838001178555610365565b82800160010185558215610365579182015b82811115610364578251825591602001919060010190610349565b5b5090506103729190610376565b5090565b5b8082111561038f576000816000905550600101610377565b5090565b60006103a66103a1846105e5565b6105b4565b9050828152602081018484840111156103be57600080fd5b6103c9848285610679565b509392505050565b600082601f8301126103e257600080fd5b81356103f2848260208601610393565b91505092915050565b60008135905061040a816107d4565b92915050565b6000806040838503121561042357600080fd5b600083013567ffffffffffffffff81111561043d57600080fd5b610449858286016103d1565b925050602061045a858286016103fb565b9150509250929050565b60006020828403121561047657600080fd5b6000610484848285016103fb565b91505092915050565b61049681610631565b82525050565b6104a581610643565b82525050565b60006104b682610615565b6104c08185610620565b93506104d0818560208601610688565b6104d9816107c3565b840191505092915050565b6104ed8161066f565b82525050565b600060208201905061050860008301846104e4565b92915050565b600060808201905061052360008301876104e4565b610530602083018661048d565b818103604083015261054281856104ab565b905061055160608301846104e4565b95945050505050565b600060a08201905061056f60008301886104e4565b61057c602083018761048d565b818103604083015261058e81866104ab565b905061059d60608301856104e4565b6105aa608083018461049c565b9695505050505050565b6000604051905081810181811067ffffffffffffffff821117156105db576105da610794565b5b8060405250919050565b600067ffffffffffffffff821115610600576105ff610794565b5b601f19601f8301169050602081019050919050565b600081519050919050565b600082825260208201905092915050565b600061063c8261064f565b9050919050565b60008115159050919050565b600073ffffffffffffffffffffffffffffffffffffffff82169050919050565b6000819050919050565b82818337600083830152505050565b60005b838110156106a657808201518184015260208101905061068b565b838111156106b5576000848401525b50505050565b600060028204905060018216806106d357607f821691505b602082108114156106e7576106e6610765565b5b50919050565b60006106f88261066f565b91507fffffffffffffffffffffffffffffffffffffffffffffffffffffffffffffffff82141561072b5761072a610736565b5b600182019050919050565b7f4e487b7100000000000000000000000000000000000000000000000000000000600052601160045260246000fd5b7f4e487b7100000000000000000000000000000000000000000000000000000000600052602260045260246000fd5b7f4e487b7100000000000000000000000000000000000000000000000000000000600052604160045260246000fd5b6000601f19601f8301169050919050565b6107dd8161066f565b81146107e857600080fd5b5056fea264697066735822122058250d7d7b65aa74d42924a72c083bab98a1b224f7cc429aa8f94c260bf0fdde64736f6c63430008000033",
  "immutableReferences": {},
  "source": "// SPDX-License-Identifier: MIT\npragma solidity ^0.8.0;\n\ncontract HeritageInsurance {\n    // Struct for Policy details\n    struct Policy {\n        uint id;\n        address policyHolder;\n        string policyNumber;\n        uint premium;\n        bool active;\n    }\n    \n    uint public policyCount;\n    mapping(uint => Policy) public policies;\n    \n    // Event for logging policy issuance\n    event PolicyIssued(uint policyId, address policyHolder, string policyNumber, uint premium);\n    \n    // Function to issue a new policy\n    function issuePolicy(string memory _policyNumber, uint _premium) public {\n        policyCount++;\n        policies[policyCount] = Policy(policyCount, msg.sender, _policyNumber, _premium, true);\n        emit PolicyIssued(policyCount, msg.sender, _policyNumber, _premium);\n    }\n    \n    // Additional functions can be added here (e.g., filing claims, processing premium payments)\n}\n",
  "sourcePath": "/home/zoro/Documents/Projects/web3/heritage-insurance-dapp/smart-contracts/contracts/HeritageInsurance.sol",
  "compiler": {
    "name": "solc",
    "version": "0.8.0+commit.c7dfd78e.Emscripten.clang"
  },
  "schemaVersion": "3.4.16",
  "updatedAt": "2025-02-25T11:27:51.430Z",
  "networkType": "ethereum",
  "devdoc": {
    "kind": "dev",
    "methods": {},
    "version": 1
  },
  "userdoc": {
    "kind": "user",
    "methods": {},
    "version": 1
  }
}